:020000040800F2
:10000000000002201D2400084D2300084F23000893
:100010005123000853230008552300080000000066
:10002000000000000000000000000000D15B00089C
:100030005723000800000000615C000859230008F5
:100040006D2400086D2400086D2400086D2400084C
:100050006D2400086D2400086D2400086D2400083C
:100060006D2400086D2400086D2400086D2400082C
:100070006D2400086D2400086D2400086D2400081C
:100080006D2400086D2400086D2400086D2400080C
:100090006D2400086D2400086D2400086D240008FC
:1000A0006D2400086D2400086D2400086D240008EC
:1000B0006D2400086D2400086D2400086D240008DC
:1000C0006D2400086D2400086D2400086D240008CC
:1000D0006D2400086D2400086D24000871230008B9
:1000E0006D2400086D2400086D2400086D240008AC
:1000F0006D2400086D2400086D2400086D2400089C
:100100006D2400086D2400086D2400086D2400088B
:100110006D2400086D2400086D2400086D2400087B
:100120006D2400086D2400086D2400086D2400086B
:100130006D2400086D2400086D2400086D2400085B
:100140006D2400086D2400086D2400086D2400084B
:100150006D2400086D2400086D2400086D2400083B
:100160006D2400086D2400086D2400086D2400082B
:100170006D2400086D2400086D24000800000000B4
:080180006D2400086D24000845
:1001900010B5054C237833B9044B13B10448AFF3C1
:1001A00000800123237010BD8C000020000000009F
:1001B000F47B000808B5034B1BB103490348AFF3B8
:1001C000008008BD0000000090000020F47B0008C3
:1001D00081F0004102E000BF83F0004330B54FEAF8
:1001E00041044FEA430594EA050F08BF90EA020F65
:1001F0001FBF54EA000C55EA020C7FEA645C7FEAF8
:10020000655C00F0E2804FEA5454D4EB5555B8BF1A
:100210006D420CDD2C4480EA020281EA030382EA8B
:10022000000083EA010180EA020281EA0303362D1D
:1002300088BF30BD11F0004F4FEA01314FF4801CF0
:100240004CEA113102D0404261EB410113F0004F02
:100250004FEA03334CEA133302D0524263EB4303B9
:1002600094EA050F00F0A780A4F10104D5F1200E57
:100270000DDB02FA0EFC22FA05F2801841F10001B2
:1002800003FA0EF2801843FA05F359410EE0A5F186
:1002900020050EF1200E012A03FA0EFC28BF4CF0B7
:1002A000020C43FA05F3C01851EBE37101F000456D
:1002B00007D54FF0000EDCF1000C7EEB00006EEB7A
:1002C0000101B1F5801F1BD3B1F5001F0CD3490804
:1002D0005FEA30004FEA3C0C04F101044FEA44525B
:1002E00012F5800F80F09A80BCF1004F08BF5FEAE2
:1002F000500C50F1000041EB045141EA050130BDC2
:100300005FEA4C0C404141EB0101013C28BFB1F5D3
:10031000801FE9D291F0000F04BF01460020B1FA1E
:1003200081F308BF2033A3F10B03B3F120020CDAF1
:100330000C3208DD02F1140CC2F10C0201FA0CF0CF
:1003400021FA02F10CE002F11402D8BFC2F1200C34
:1003500001FA02F120FA0CFCDCBF41EA0C019040EA
:10036000E41AA2BF01EB0451294330BD6FEA040433
:100370001F3C1CDA0C340EDC04F11404C4F120021E
:1003800020FA04F001FA02F340EA030021FA04F330
:1003900045EA030130BDC4F10C04C4F1200220FA87
:1003A00002F001FA04F340EA0300294630BD21FAC5
:1003B00004F0294630BD94F0000F83F4801306BF8B
:1003C00081F480110134013D4EE77FEA645C18BF7F
:1003D0007FEA655C29D094EA050F08BF90EA020F16
:1003E00005D054EA000C04BF1946104630BD91EA0E
:1003F000030F1EBF0021002030BD5FEA545C05D111
:100400004000494128BF41F0004130BD14F580044F
:100410003CBF01F5801130BD01F0004545F0FE41C3
:1004200041F470014FF0000030BD7FEA645C1ABFF8
:10043000194610467FEA655C1CBF0B46024650EA2F
:10044000013406BF52EA033591EA030F41F400215B
:1004500030BD00BF90F0000F04BF0021704730B5E1
:100460004FF4806404F132044FF000054FF00001B6
:1004700050E700BF90F0000F04BF0021704730B577
:100480004FF4806404F1320410F0004548BF40424C
:100490004FF000013EE700BF42004FEAE2014FEAA1
:1004A00031014FEA02701FBF12F07F4393F07F4F7C
:1004B00081F06051704732F07F4208BF704793F07F
:1004C0007F4F04BF41F40021704730B54FF4607492
:1004D00001F0004521F000411CE700BF50EA010295
:1004E00008BF704730B54FF000050AE050EA01023E
:1004F00008BF704730B511F0004502D5404261EBAE
:1005000041014FF4806404F132045FEA915C3FF4EE
:10051000D8AE4FF003025FEADC0C18BF03325FEA8B
:10052000DC0C18BF033202EBDC02C2F1200300FA3C
:1005300003FC20FA02F001FA03FE40EA0E0021FA61
:1005400002F11444BDE600BF70B54FF0FF0C4CF44F
:10055000E06C1CEA11541DBF1CEA135594EA0C0F01
:1005600095EA0C0F00F0DEF82C4481EA030621EA3C
:100570004C5123EA4C5350EA013518BF52EA033577
:1005800041F4801143F4801338D0A0FB02CE4FF029
:100590000005E1FB02E506F00042E0FB03E54FF059
:1005A0000006E1FB03569CF0000F18BF4EF0010E51
:1005B000A4F1FF04B6F5007F64F5407404D25FEA4D
:1005C0004E0E6D4146EB060642EAC62141EA555100
:1005D0004FEAC52040EA5E504FEACE2EB4F1FD0C42
:1005E00088BFBCF5E06F1ED8BEF1004F08BF5FEAC0
:1005F000500E50F1000041EB045170BD06F0004672
:1006000046EA010140EA020081EA0301B4EB5C041E
:10061000C2BFD4EB0C0541EA045170BD41F4801116
:100620004FF0000E013C00F3AB8014F1360FDEBF3B
:10063000002001F0004170BDC4F10004203C35DA17
:100640000C341BDC04F11404C4F1200500FA05F39A
:1006500020FA04F001FA05F240EA020001F000423B
:1006600021F0004110EBD37021FA04F642EB0601B1
:100670005EEA430E08BF20EAD37070BDC4F10C04DB
:10068000C4F1200500FA04F320FA05F001FA04F29F
:1006900040EA020001F0004110EBD37041F100018B
:1006A0005EEA430E08BF20EAD37070BDC4F1200596
:1006B00000FA05F24EEA020E20FA04F301FA05F2FE
:1006C00043EA020321FA04F001F0004121FA04F2A6
:1006D00020EA020000EBD3705EEA430E08BF20EA76
:1006E000D37070BD94F0000F0FD101F000464000B0
:1006F00041EB010111F4801F08BF013CF7D041EA32
:10070000060195F0000F18BF704703F00046520035
:1007100043EB030313F4801F08BF013DF7D043EA06
:100720000603704794EA0C0F0CEA135518BF95EABC
:100730000C0F0CD050EA410618BF52EA4306D1D143
:1007400081EA030101F000414FF0000070BD50EA62
:10075000410606BF1046194652EA430619D094EAEC
:100760000C0F02D150EA013613D195EA0C0F05D1D6
:1007700052EA03361CBF104619460AD181EA03012A
:1007800001F0004141F0FE4141F470014FF00000E2
:1007900070BD41F0FE4141F4780170BD70B54FF07D
:1007A000FF0C4CF4E06C1CEA11541DBF1CEA1355FD
:1007B00094EA0C0F95EA0C0F00F0A7F8A4EB0504DF
:1007C00081EA030E52EA03354FEA013100F08880D6
:1007D0004FEA03334FF0805545EA131343EA12639F
:1007E0004FEA022245EA111545EA10654FEA002654
:1007F0000EF000419D4208BF964244F1FD0404F50D
:10080000407402D25B084FEA3202B61A65EB030568
:100810005B084FEA32024FF480104FF4002CB6EB25
:10082000020E75EB030E22BFB61A754640EA0C00A5
:100830005B084FEA3202B6EB020E75EB030E22BFE5
:10084000B61A754640EA5C005B084FEA3202B6EB26
:10085000020E75EB030E22BFB61A754640EA9C00E5
:100860005B084FEA3202B6EB020E75EB030E22BFB5
:10087000B61A754640EADC0055EA060E18D04FEA73
:10088000051545EA16754FEA06164FEAC30343EA13
:1008900052734FEAC2025FEA1C1CC0D111F4801FE0
:1008A0000BD141EA00014FF000004FF0004CB6E7D9
:1008B00011F4801F04BF01430020B4F1FD0C88BF78
:1008C000BCF5E06F3FF6AFAEB5EB030C04BFB6EB83
:1008D000020C5FEA500C50F1000041EB045170BD76
:1008E0000EF0004E4EEA113114EB5C04C2BFD4EBA3
:1008F0000C0541EA045170BD41F480114FF0000E27
:10090000013C90E645EA060E8DE60CEA135594EAA2
:100910000C0F08BF95EA0C0F3FF43BAF94EA0C0FA5
:100920000AD150EA01347FF434AF95EA0C0F7FF41A
:1009300025AF104619462CE795EA0C0F06D152EA6E
:1009400003353FF4FDAE1046194622E750EA410652
:1009500018BF52EA43067FF4C5AE50EA41047FF463
:100960000DAF52EA43057FF4EBAE12E74FF0FF3CC8
:1009700006E000BF4FF0010C02E000BF4FF0010C99
:100980004DF804CD4FEA410C7FEA6C5C4FEA430C12
:1009900018BF7FEA6C5C1BD001B050EA410C0CBF61
:1009A00052EA430C91EA030F02BF90EA020F0020C3
:1009B000704710F1000F91EA030F58BF994208BF2A
:1009C00090422CBFD8176FEAE37040F001007047E7
:1009D0004FEA410C7FEA6C5C02D150EA013C07D13E
:1009E0004FEA430C7FEA6C5CD6D152EA033CD3D089
:1009F0005DF8040B704700BF8446104662468C4683
:100A00001946634600E000BF01B5FFF7B7FF0028B5
:100A100048BF10F1000F01BD4DF808EDFFF7F4FFDE
:100A20000CBF012000205DF808FB00BF4DF808ED69
:100A3000FFF7EAFF34BF012000205DF808FB00BF8C
:100A40004DF808EDFFF7E0FF94BF012000205DF8AE
:100A500008FB00BF4DF808EDFFF7CEFF94BF012063
:100A600000205DF808FB00BF4DF808EDFFF7C4FF5C
:100A700034BF012000205DF808FB00BF4FEA410CA5
:100A80007FEA6C5C02D150EA013C0AD14FEA430C88
:100A90007FEA6C5C02D152EA033C02D14FF00000C5
:100AA00070474FF0010070474FEA410212F5001203
:100AB00015D211D56FF47873B3EB625212D94FEAA5
:100AC000C12343F0004343EA505311F0004F23FA8F
:100AD00002F018BF404270474FF00000704750EAE4
:100AE000013005D111F0004008BF6FF000407047A1
:100AF0004FF00000704700BF53B94AB9002908BF42
:100B000000281CBF4FF0FF314FF0FF3000F06EB9EE
:100B1000ADF1080C6DE904CE00F006F8DDF804E054
:100B2000DDE9022304B070472DE9F047089D044633
:100B30008C46002B40F083808A42174647D9B2FA90
:100B400082F242B1C2F1200024FA00F091409740B5
:100B500040EA010C94404FEA1748230CBCFBF8F61E
:100B60001FFA87FE08FB16C143EA014306FB0EF19C
:100B7000994209D9FB1806F1FF3080F0198199429A
:100B800040F21681023E3B445B1AA4B2B3FBF8F07C
:100B900008FB103344EA034400FB0EFEA64509D9C6
:100BA0003C1900F1FF3380F00581A64540F2028137
:100BB00002383C4440EA0640A4EB0E0400261DB176
:100BC000D4400023C5E900433146BDE8F08702B9AF
:100BD000FFDEB2FA82F2002A50D1CB1B4FEA174E49
:100BE0001FFA87F80126B3FBFEFC210C0EFB1C3319
:100BF00041EA034108FB0CF38B4207D979180CF149
:100C0000FF3002D28B4200F2E9808446C91AA3B2B7
:100C1000B1FBFEF00EFB101143EA014408FB00F8A3
:100C2000A04507D93C1900F1FF3302D2A04500F2DC
:100C3000D9801846A4EB080440EA0C40BFE78B4279
:100C400009D9002D00F0B1800026C5E90001304629
:100C50003146BDE8F087B3FA83F6002E4AD18B42C5
:100C600002D3824200F2B880841A61EB03010120B2
:100C70008C46002DA8D0C5E9004CA5E7C2F12003A1
:100C800020FA03F6974001FA02F04FEA174ED940D6
:100C90003043030CB1FBFEF61FFA87F80EFB16116A
:100CA00043EA014306FB08F1994204FA02F409D928
:100CB000FB1806F1FF3C80F08D80994240F28A805B
:100CC000023E3B445B1A81B2B3FBFEF00EFB1033D5
:100CD00041EA034100FB08F38B4207D9791800F180
:100CE000FF3C73D28B4271D902383944CB1A40EAA7
:100CF000064678E7C6F1200C03FA06F422FA0CF354
:100D00001C4320FA0CF701FA06F34FEA144E21FABD
:100D10000CF11F433B0CB1FBFEF91FFA84F80EFBEC
:100D2000191143EA014109FB08FA8A4502FA06F261
:100D300000FA06F308D9611809F1FF3048D28A4554
:100D400046D9A9F102092144A1EB0A01BFB2B1FBC6
:100D5000FEF00EFB101147EA014700FB08F8B8450A
:100D600007D9E71900F1FF312ED2B8452CD9023846
:100D7000274440EA0940A7EB0807A0FB02894F453A
:100D8000C64649461AD317D05DB1B3EB0E0267EBE6
:100D9000010707FA0CFCF2404CEA0202F740C5E9F1
:100DA000002700263146BDE8F0872E4628460BE78F
:100DB0000646E9E61846FDE64345E5D2B8EB020EE5
:100DC00069EB04010138DFE70846D2E760468DE7AA
:100DD0008146B9E7664675E730464AE7ACF1020C52
:100DE000394413E702383C4424E700BF704700BF92
:100DF00008B54FF4FA7003F096FC41F28830FAE738
:100E000008B5FA2003F08FFCFBE708B54FF47A70C1
:100E100003F089FC42F21070FAE708B54FF4FA705B
:100E200003F081FC012003F07EFCF7E708B542F2F5
:100E3000107003F078FCFAE7F0B5294D87B0012473
:100E400064270DF117062346CDE9014700960622D7
:100E5000D021284602F05AF99DF81730009623F069
:100E6000470323438DF81730CDE901472346062277
:100E7000D021284602F0BAF82346CDE90147009672
:100E80000F22D021284602F041F99DF81730009634
:100E900043F002038DF81730CDE9014723460F22B6
:100EA000D021284602F0A2F8234632221821CDE9AB
:100EB0000147009628468DF8174002F097F8322037
:100EC00003F031FC08238DF81730CDE90147009677
:100ED000234631221821284602F088F807B0F0BDD9
:100EE000E04A00200E4A1368014641F63F708342F3
:100EF00010B404D10B485DF8044B05F053BA0A480E
:100F00000468013404BF0024046008485DF8044B01
:100F10000133136000EB8300042205F053BA00BFD5
:100F200000000020267C000804000020CC4B00209C
:100F3000094A1368591C10B503D0084909688B4247
:100F400004DD074805F02EFA204610BD054C591C5B
:100F5000116004EB8304F7E7040000200000002088
:100F60002F7C0008CC4B00204278303AD3B2092BBA
:100F70000AD88378C07864214A43303B0A2101FBB8
:100F8000032330381844704700207047313810B5BB
:100F9000114A124B03281CD8DFE800F0020A0D1892
:100FA00040F2DC510E4801800E48018011800BE0B8
:100FB0004FF4FA61F6E70A490A4C40F6B830088067
:100FC0004FF4486121801080198010BD4FF47A6180
:100FD000E8E70021EAE700BFD4000020D6000020A7
:100FE000B4000020B6000020074A00231380074AFF
:100FF0001380074A1360074A1360074A1360074AC1
:101000001268536393637047D4000020D600002019
:10101000B0000020A8000020DC000020084A0020CA
:1010200008B50B480122042101F056FD08480022B2
:10103000082101F051FD06480122202101F04CFD5C
:10104000BDE8084002480022102101F045BD00BF64
:101050000000024008B50B480022042101F03CFDCD
:1010600008480122082101F037FD0648002220210E
:1010700001F032FDBDE8084002480122102101F0D4
:101080002BBD00BF00000240144B012270B51A6056
:10109000134D144B144E00241C70FFF7DBFF2A681D
:1010A000B42313644FF4FA70337003F03CFB0F4B1E
:1010B0001B6840F6B8325A634FF47A729A634FF461
:1010C000FA6003F030FB2A688E2333701364084BF8
:1010D0001C60BDE87040FFF787BF00BFDC00002048
:1010E000D8C800201000002008000020084A002076
:1010F000D0000020134B012270B51A60124D134B23
:10110000134E002204461A70FFF7A4FF2A68B42386
:1011100013644FF4FA70337003F005FB0D4B1B683A
:1011200040F6B8325A634FF47A729A63204603F05D
:10113000FAFA2A688E2333701364BDE87040FFF713
:1011400053BF00BFDC000020D8C8002010000020E2
:1011500008000020084A0020134B012270B51A60D5
:10116000124D134B134E002204461A70FFF758FF1E
:101170002A68B42313644FF4FA70337003F0D3FA7F
:101180000D4B1B6840F6B8325A634FF4FA729A63FB
:10119000204603F0C8FA2A688E2333701364BDE832
:1011A0007040FFF721BF00BFDC000020D8C800203E
:1011B0001000002008000020084A0020144B0122E3
:1011C00070B51A60134D144B144E002204461A7069
:1011D000FFF740FF2A68792313643370FFF73AFF63
:1011E0004FF4FA7003F09FFA0D4B1B6840F20D228A
:1011F0005A6340F61C429A63204603F094FA2A6828
:10120000932333701364BDE87040FFF7EDBE00BF59
:10121000DC000020D8C800201000002008000020BA
:10122000084A0020134B70B501220446124D1A6083
:10123000FFF7F6FE114B124E00221A702A6879232E
:1012400013644FF4FA70337003F06DFA0D4B1B68A2
:101250004FF47A725A6340F61C429A63204603F0B8
:1012600062FA2A68932333701364BDE87040FFF775
:10127000BBBE00BFDC000020D8C80020100000204A
:1012800008000020084A0020144B70B501241C609F
:10129000134D144B144E00221A70FFF7DBFE2A6820
:1012A00079231364FA20337003F03DFAFFF7D2FE7E
:1012B0000E4B1B684FF47A725A6340F6B8329A6349
:1012C0004FF4FA6003F02FFA2A68992333701364FD
:1012D000074B1C60BDE87040FFF786BEDC000020B5
:1012E000D8C800201000002008000020084A002074
:1012F000D000002008B54FF4FA70FFF75FFFFA2026
:1013000003F011FA4FF4FA70FFF726FFFA2003F00A
:101310000AFA4FF4C870FFF751FFFA2003F003FAFE
:101320004FF41670FFF718FFFA2003F0FCF9642061
:10133000FFF744FF024B1B6893221A6408BD00BFED
:10134000D8C8002000000000F8B5034638B3FFF706
:1013500091F802460B4604460D46FFF7F5F813A335
:10136000D3E90023FFF7F0F812A3D3E900230646E0
:101370000F4620462946FFF7E7F802460B4630465F
:101380003946FEF72BFF0DA3D3E90023FEF726FF16
:10139000054B0022FFF7D8F8FFF786FB03461846F7
:1013A000F8BD00BFAFF3008000408F40FD9453D0E4
:1013B00027D186BE55C1A8A44E40933F174850FC84
:1013C0001873973F2DE9F84F2C4F2D4DFFF7BCFFB9
:1013D0002C493A688F2313640B702B4B01221A603F
:1013E0002A4B1A702A680446884699462AB94FF44F
:1013F0007A7003F098F902232B60254EDFF89CB039
:10140000DFF89CA033200025FFF7C0FDFFF722FE88
:101410003580002C1F4A0CDCFFF7E6FD00239322E9
:10142000396889F8003088F800200A643380BDE804
:10143000F88FDBF80030D3B9EB1E012B94BF40F6D8
:101440001C434FF448631449AAF800301368098814
:101450005963B4F57A7FBAF8001099630ADD4FF446
:101460007A7003F060F9A4F57A740135D1E740F69B
:10147000B833E8E7204603F056F9CDE7D8C8002096
:101480000C00002008000020DC00002010000020DC
:10149000CC000020084A0020D4000020D00000200A
:1014A000D60000202DE9F8431C4B1D4D1D4E1E4F4C
:1014B000DFF87C80DFF87C9001221A60FFF744FFA0
:1014C0002A6893231364044633203370FFF75EFDCC
:1014D000FFF7A6FD002C15DD3A68B8F8003053631D
:1014E000B9F80030B4F57A7FA3F1C803936306DD41
:1014F0004FF47A7003F017F9A4F57A74EAE72046FE
:1015000003F011F9FFF770FD084B00221A702A68EA
:10151000932333701364BDE8F88300BFDC00002020
:10152000D8C8002008000020084A00201000002031
:10153000D4000020D600002008B54FF4FA70FFF761
:10154000D9FD4FF44870FFF76DFE4FF4FA70FFF7C6
:10155000D1FDC820FFF766FE0420FFF7A3FF024B72
:101560001B6893221A6408BDD8C800200000000040
:101570002DE9F8439FED2A1B57EC106B05F086FB15
:1015800032463B463046394659EC108BFEF7DCFFBD
:1015900029A3D3E90023FEF7D7FF29A3D3E900232A
:1015A00004460D4640464946FEF7CEFF02460B462E
:1015B00020462946FEF712FE23A3D3E90023044662
:1015C0000D4630463946FEF7BFFF02460B46204621
:1015D0002946FEF703FE1EA3D3E90023FEF7FEFD16
:1015E000134B0022FEF7B0FFFFF75EFA114B0446E3
:1015F000002230463946FFF70FFA20B104F5967401
:101600002046BDE8F88308A3D3E9002330463946D5
:10161000FFF702FA0028F3D09634F1E7AFF3008029
:1016200000000000000008400000000000E07040E2
:1016300000408F40008076406959F78F85E8103F61
:10164000AE2E0777F0DEA4BE849ECDAACFD5963FFE
:10165000C4B12E6EA301AC3F154B012270B5023010
:101660001A60FEF707FF41EC100BFFF781FF114DE9
:10167000114E0446FFF7D4FC104B00221A702A6862
:101680007923136433700E4B1B6840F24C425A634B
:1016900040F634029A63A4F1640003F044F82A6827
:1016A000932333701364BDE87040FFF79DBC00BF07
:1016B000DC000020D8C80020080000201000002016
:1016C000084A0020000000002DE9F8439FED261B8A
:1016D00057EC106B05F0DAFA32463B463046394695
:1016E00059EC108BFEF730FF24A3D3E90023FEF75B
:1016F0002BFF24A3D3E9002304460D464046494668
:10170000FEF722FF02460B4620462946FEF766FDFD
:101710001EA3D3E9002304460D4630463946FEF7A2
:1017200013FF02460B4620462946FEF757FD19A334
:10173000D3E90023FEF752FD0F4B0022FEF704FF12
:10174000FFF7B2F90AA3D3E900230446394630462D
:10175000FFF780F900B1C83CB4F5967FA8BFC83444
:101760002046BDE8F88300BF0000000000000840EC
:101770000000000000E0704000408F40D3FBC6D75F
:101780009E59023F2A5CA3A6DCCB9DBEBE30992A9F
:101790001895943FF0C9C342AD699E3F144B37B5CD
:1017A00001221A60FEF766FE41EC100BFFF78CFF7A
:1017B000104C114B114D019000221A70FFF730FCB4
:1017C00022680198B42313642B700D4B1B684FF4EF
:1017D000FA625A634FF47A729A6302F0A4FF2268A5
:1017E00091232B70136403B0BDE83040FFF7FCBBBE
:1017F000DC000020D8C800201000002008000020D5
:10180000084A0020F0B5504A504C10685168504EBC
:1018100087B001AB03C39068186000234FF47A705F
:10182000CDE9043302F07FFF25464A4F8DF804606E
:101830003868012835D0484B484A1B681268134362
:101840002268134303D10120206002F06CFF2B6853
:10185000012B36D1424B1B685A1C71D0414A126889
:1018600093426DDC00232B60FFF762FB04220146EC
:10187000684604F0A7FD6846FFF776FB9DF8003048
:10188000613B162B59D8DFE803F03420583B580F42
:101890005858584D58285830585858245458582C8F
:1018A000420002F040FFC3E7FFF78CFD2E4901A87C
:1018B00004F080FD2D484FF6FF73082201A902F0C5
:1018C00087FCFA2002F02FFFAFE7FFF7EBFD284976
:1018D000EDE7FFF7D9FB2749E9E7FFF7D5FC2649F4
:1018E000E5E7FFF7B9FE2549E1E7FFF757FF244990
:1018F000DDE7244901A804F05DFDFFF7FBFCD9E713
:10190000214901A804F056FDFFF716FED2E7FFF7C4
:101910006BFB1E4901A804F04DFD41F2883002F036
:1019200002FFC7E71A4B01221A60FFF74BFD194966
:10193000F0E7FFF759FB1849ECE7FFF755FBB9E76C
:10194000FFF752FBBDE700BF107C0008AC00002091
:10195000707C00080C000020B0000020A8000020CF
:101960000400002000000020397C0008544A0020B8
:10197000417C0008497C0008517C0008597C000823
:10198000617C0008697C0008717C0008797C000893
:10199000D8000020817C0008897C000800B595B043
:1019A0002C22002109A804F087FC1422002103A89E
:1019B00004F082FC0023194A0193116C41F080511C
:1019C0001164126C02F080520192019A144A02933F
:1019D000116841F48041116012680E9302F4804254
:1019E0000292029A0222089201201022CDE90B02F3
:1019F00008A801F0AFFC014608B172B6FEE70F235C
:101A0000CDE90330CDE90500079003A801F07CFE85
:101A100008B172B6FEE715B05DF804FB003802406D
:101A20000070004080B59AB000F046FDFFF7B6FFA9
:101A30001422002111A804F03FFC0024AA4B0094BA
:101A40001A6BAA48AA4D42F010021A631A6B02F0F0
:101A500010020092009A01941A6B42F001021A637C
:101A60001A6B02F001020192019A02941A6B42F081
:101A700004021A631A6B02F004020292029A03949F
:101A80001A6B42F002021A631B6B03F0020303930A
:101A900022464FF4F071039B01F01EF82246954850
:101AA0003C2101F019F801264FF4F0738F4811A979
:101AB000CDE91136CDE9134400F034FF3C238D48C5
:101AC00011A9CDE91136CDE9134400F02BFF102206
:101AD000214611A804F0F0FB874BAC60C5E9003447
:101AE0002846864B2C612C7685F82040EC62AB6250
:101AF000EC60EE6185F830406E6100F01DFD08B1CC
:101B000072B6FEE7139011A92846CDE9116600F0E0
:101B1000B9FD034608B172B6FEE77948794A7A4CB6
:101B20000362C0E900424FF48042C0E90233C0E9D9
:101B30000423C0E9063301F0B1F9054608B172B6D5
:101B4000FEE70146102206A804F0B6FB1C22294637
:101B50000AA8CDE9045504F0AFFB2946202211A8BC
:101B600004F0AAFB694C6A49A560A023C4E90013EC
:101B700020464FF47A73C4E90335C4E9055501F0F2
:101B800075FF08B172B6FEE74FF4805306A92046F0
:101B9000069302F0B7F808B172B6FEE7204601F0EE
:101BA00091FF08B172B6FEE7CDE9040004A9204612
:101BB00002F0BAF908B172B6FEE76023CDE90A3047
:101BC000CDE90E000C9010900C220AA9204602F0DC
:101BD00031F808B172B6FEE7CDE91100CDE9130086
:101BE00015904FF40053189011A92046169302F057
:101BF000D9F9054608B172B6FEE7204600F038FB79
:101C000044484FF08043C0E900354FF6FF73C0E908
:101C10000335802383610323CDE9113511A90A23FC
:101C2000CDE90A55CDE91365CDE91535CDE917653F
:101C30008560199301F072FF08B172B6FEE70023C8
:101C400034480AA9CDE90A3302F06EF908B172B638
:101C5000FEE7314C314BA060C4E900304FF6FF7312
:101C6000C4E903300323CDE9113001220A23CDE971
:101C70000A00CDE91320CDE91530CDE91720A06188
:101C800011A92046199301F049FF08B172B6FEE789
:101C9000CDE90A000AA9204602F046F9054608B136
:101CA00072B6FEE70146102206A804F005FB1C22CE
:101CB00029460AA8CDE9045504F0FEFA2022294657
:101CC00011A804F0F9FA164C164BA560C4E90035CA
:101CD000204641F61F43C4E90335C4E9055501F028
:101CE000C5FE08B372B6FEE700380240001002409D
:101CF000844B002000000240002001400100000F42
:101D0000E04A0020A086010000540040D8C800200E
:101D10000000014024C900203C4B0020000400408A
:101D2000084A0020000401404FF4805306A92046D1
:101D3000069301F0E7FF08B172B6FEE7204601F016
:101D4000C1FE08B172B6FEE7CDE9040004A9204641
:101D500002F0EAF8024608B172B6FEE76023CDE968
:101D60000A30CDE90C00CDE90E0010900AA92046FA
:101D700001F060FF08B172B6FEE704220AA920460E
:101D800001F058FF08B172B6FEE7CDE91100CDE9C8
:101D9000130015904FF40053189011A92046169384
:101DA00002F000F908B172B6FEE7424E424A4FF423
:101DB000E133C6E900230C2700233046C6E902338D
:101DC000C6E905733361F36102F0D4F9054608B141
:101DD00072B6FEE70146102211A804F06DFA374CE6
:101DE000374BA5604FF00108C4E900352046354B5C
:101DF0002561257684F82050E562A362E560C4F889
:101E00001C8084F83050C4F8148000F095FB08B1B1
:101E100072B6FEE7CDE91108139011A9204600F033
:101E200031FC044608B172B6FEE704F085F942467B
:101E30002549304602F0E9FB2146244802F072F8B9
:101E40000421224802F06EF83946214802F06AF86F
:101E5000FEF7F2FF02F0F2FB1E4A1F48214602F095
:101E600019FC1E4B1E4A186021461E4802F012FC47
:101E70001D4B1E4A186021461D4802F00BFC1D4BED
:101E80001D4A186021461D4802F004FC1C4B1D4AE7
:101E9000186021461C4802F0FDFB1C4B1C4A1860D0
:101EA00021461C4802F0F6FB1B4B186002F0D8FBE1
:101EB000FEE700BF544A002000480040984A002036
:101EC000002101400100000FB8000020084A002056
:101ED000D8C800207C7D0008F10D0008FC490020D6
:101EE000587D0008010E000820C90020107D000860
:101EF00005180008D0C80020C87C00080B0E000898
:101F000070C90020EC7C00081B0E0008004A00206D
:101F1000347D00082D0E0008044A002038B51C4B03
:101F20001C4C1A681C4D012A04BF00221A60237839
:101F30002A78613BDBB2162B20460CD9A2F1610353
:101F4000DBB2162B04D8154921FA03F3DB071BD4A7
:101F50000122114913E0114921FA03F3D907EDD504
:101F60006B78A370AB786270E370FEF7BBFF0C4B2D
:101F7000DBB2E370A3706370237001222946BDE8D1
:101F80003840084802F041BB02700322E1E700BF7D
:101F90000C000020344B0020B80000202B2A6600E3
:101FA000247C0008544A002082B00E4B002200928C
:101FB000596C41F480415964596C01F4804100919D
:101FC00000990192196C41F0805119641B6C03F067
:101FD00080530193019B0F216FF0010002B000F0CC
:101FE000F5BB00BF0038024010B514228AB0044689
:101FF00000210DEB020004F05FF923681F4A9342B1
:1020000020D11F4B00220192596C41F48071596418
:10201000596C01F48071019101990292196B41F0A0
:10202000010119631B6B03F001030293029B02235E
:1020300005931448032305A9CDE9063200F072FC8C
:102040000AB010BD104A9342FAD10D4B0022039200
:10205000596C41F400715964596C01F40071039199
:1020600003990492196B41F0010119631B6B03F092
:1020700001030493049B0123DAE700BF0020014021
:1020800000380240000002400021014030B5044603
:1020900089B01422002103A804F00EF92268144B21
:1020A0009A4223D1134C144800250195236B43F029
:1020B00002032363236B059503F002030193019B45
:1020C0004FF440721223CDE9032303210423CDE909
:1020D000061303A900F026FC0295236C43F40013B9
:1020E0002364236C03F400130293029B09B030BDF8
:1020F00000540040003802400004024010B504467D
:1021000088B01422002103A804F0D6F823681B4AE3
:1021100093420DD100230093194B5A6C42F00102F7
:102120005A645B6C03F001030093009B08B010BD80
:10213000144A9342FAD1124B134800220192596C6F
:1021400041F002015964596C01F0020101910199B9
:102150000292196B41F0040119631B6B03F0040335
:102160000293029BC0210223CDE90313032303A999
:10217000CDE90522079300F0D5FBD7E70000014029
:1021800000380240000401400008024070B51422EB
:102190008AB0044600210DEB020004F08DF823689C
:1021A000B3F1804F39D103F50E33002400941A6C3B
:1021B0002B4842F001021A641A6C02F001020092EC
:1021C000009A01941A6B42F001021A631A6B02F032
:1021D00001020192019A02941A6B42F002021A6300
:1021E0001B6B03F002030293029B02264FF4004391
:1021F000012505A9CDE90536CDE90744099500F08B
:1022000091FB0823CDE90536CDE90744154809952A
:1022100005A900F087FB0AB070BD134A9342FAD1BA
:10222000124B0F4800220392196C41F0020119640D
:10223000196C01F00201039103990492196B41F0AA
:10224000010119631B6B03F001030493C021049B7C
:102250000223CDE90513CDE90722099305A9D8E7A3
:102260000000024000040240000400400038024028
:1022700010B5044686B01422002101A804F01CF811
:1022800022680F4B9A4218D10E4A0F480023009340
:10229000116B41F010011163126B02F010020092F9
:1022A0004FF48041009A0222CDE90112CDE90333B7
:1022B00001A90123059300F035FB06B010BD00BF56
:1022C00000000140003802400010024010B50446F2
:1022D00088B01422002103A803F0EEFF2268194BF6
:1022E0009A422CD103F5F833002401941A6C164855
:1022F00042F480221A641A6C02F480220192019A3C
:1023000002941A6B42F004021A631B6B059403F0EB
:10231000040302934FF44062029B0223CDE903239E
:1023200003210723CDE9061303A900F0FBFA2720B8
:102330002246052100F04AFA272000F079FA08B079
:1023400010BD00BF0048004000080240FEE7FEE765
:10235000FEE7FEE7FEE7704708B500F0C7F803F0B8
:10236000A3F9012803D0BDE8084003F0ABBC08BDC9
:10237000014801F0E9BF00BF544A002070B50E4685
:1023800014460025A54201DB204670BDAFF3008056
:1023900070550135F6E770B50E4614460025A54286
:1023A00001DB204670BD705DAFF300800135F6E7BC
:1023B0004FF0FF3070474FF400534B6000207047E0
:1023C00001207047002070470B4B196810B502467A
:1023D00009B90A491960186809490A4C0244091BDD
:1023E0008A4206D903F030FF0C2303604FF0FF3020
:1023F00010BD1A60FCE700BFE0000020C8CD00203F
:102400000000022000040000034AD2F8883043F4A0
:102410007003C2F88830704700ED00E0DFF834D078
:102420000D480E490E4A002302E0D458C45004332C
:10243000C4188C42F9D30B4A0B4C002301E0136003
:102440000432A242FBD3FFF7DFFF03F003FFFFF7E5
:10245000E9FA704700000220000000208C000020F4
:10246000807E00088C000020C8CD0020FEE7000020
:1024700038B50E4A0E4B054618784FF47A73B3FB05
:10248000F0F31068B0FBF3F000F0E0F9044658B93F
:102490000F2D09D8024629464FF0FF3000F096F97B
:1024A000044B20461D6038BD0120FCE714000020CD
:1024B000180000201C00002008B50B4B1A6842F4DD
:1024C00000721A601A6842F480621A601A6842F454
:1024D00080721A60032000F067F90F20FFF7C8FF31
:1024E000FFF762FD002008BD003C0240034A044B98
:1024F00011681B780B441360704700BF74C900203B
:1025000018000020014B1868704700BF74C90020F4
:1025100038B50446FFF7F6FF631C1CBF054B1B785C
:10252000054618BFE418FFF7EDFF431BA342FAD39B
:1025300038BD00BF1800002038B50446002800F060
:102540009B80056C25B9FFF74FFD656484F83C500E
:10255000236CDB0600F18E80236C23F4885323F078
:10256000020343F002032364444B5A6822F44032CE
:102570005A605A6861680A435A60236821695A6838
:1025800022F480725A605A6842EA01225A605A68FC
:10259000A16822F040725A605A680A435A609A68E9
:1025A000E16822F400629A609A680A439A603449AA
:1025B000A26A8A4252D0996821F070619960996844
:1025C0000A439A609A68E16A22F040529A609A68D7
:1025D0000A439A609A6822F002029A609A68217E01
:1025E00042EA41029A6094F82020002A3ED05A68BC
:1025F000616A42F400625A605A6822F460425A608A
:102600005A68013942EA41325A60DA6AE16922F4D1
:102610007002DA62DA6A013942EA0152DA629A68D1
:1026200022F400729A609A6894F8301042EA4122CB
:102630009A609A68616922F480629A609A680020C0
:1026400042EA81229A606064236C23F0030343F022
:1026500001032364002384F83C3038BD9A6822F0DB
:1026600070629A609A6822F04052B2E75A6822F487
:102670000062C9E70120EDE70120EEE700230140F9
:102680000100000FF7B50023019390F83C30012BB7
:1026900066D0012380F83C300D6803688E68092DF0
:1026A000ACB231D904EB4402DF681E3A4FF0070C9C
:1026B0000CFA02FC27EA0C07DF60DF6806FA02F278
:1026C0003A43DA604968062901EB81022CD8596B3C
:1026D000053A1F26964021EA06015963596B04FA10
:1026E00002F20A435A632C4A934207D1122D39D180
:1026F000D2F8043343F48003C2F80433002380F893
:102700003C30184603B0F0BD1F6905EB45024FF0A1
:10271000070C0CFA02FC27EA0C071F611F6906FA76
:1027200002F23A431A61CDE70C294FF01F010BD892
:102730001E6B233A914026EA01011963196B04FAD2
:1027400002F20A431A63CEE7DE6A413A914026EA72
:102750000101D962D96A04FA02F20A43DA62C2E7D5
:102760000220CFE7A5F11003012BC7D80B4A53680D
:10277000102D43F400035360C0D1094B094A1B6874
:10278000B3FBF2F20A2353430193019B002BB5D014
:10279000019B013BF8E700BF0020014000230140FE
:1027A0001400002040420F000749CA6822F4E0628A
:1027B0000302120403F4E063120C134343F0BF63FB
:1027C00043F40033CB60704700ED00E0164B30B5AA
:1027D000DC68C4F30224C4F10705231D042D28BFBF
:1027E0000425062B4FF0FF338CBF033C002403FA73
:1027F00005F521EA0501A34022EA0302A1400028D1
:1028000041EA0203ACBF00F16040084A4FEA0313FB
:10281000B8BF00F00F00DBB2AABF00F5614013544F
:1028200080F8003330BD00BF00ED00E014ED00E0A3
:10283000002808DB4209012300F01F0003FA00F022
:10284000014B43F82200704700E100E00138B0F18D
:10285000807F0AD2064B074A5860F02182F8231085
:102860000020072298601A6070470120704700BF5F
:1028700010E000E000ED00E070B50446866DFFF763
:1028800041FE94F83530022B054606D0802363655F
:10289000002384F83430012070BD23681A6822F0C8
:1028A00016021A605A6922F080025A61226C0AB933
:1028B000A26C1AB11A6822F008021A601A6822F093
:1028C00001021A6023681B6813F001030AD1E16D4D
:1028D0003F228A40B260012284F8352084F83430E7
:1028E0001846D9E7FFF70EFE401B0528EAD920233A
:1028F00063650320002384F8350084F83430CBE787
:1029000090F83530022B03D08023436501207047B7
:102910000268052380F83530136823F00103136043
:10292000002070472DE9F74FDFF8A891674A002390
:102930000D6801249C4004EA050CAC4340F0B180D2
:102940004D6805F003044FEA43080326671E06FAA4
:1029500008F6012F6FEA060634D8876807EA060EE4
:10296000CF6807FA08F747EA0E078760476827EA43
:102970000C0EC5F300179F4047EA0E074760C76873
:1029800007EA060E8F6807FA08F747EA0E07022CD7
:10299000C76019D14FEAD30A00EB8A0A03F0070B8C
:1029A000DAF820704FEA8B0B4FF00F0E0EFA0BFE89
:1029B00027EA0E0E0F6907FA0BF747EA0E07CAF867
:1029C000207001E0032CDAD1076804FA08F43E40D5
:1029D000264315F4403F066063D04FF0000ACDF85F
:1029E00004A0D9F844603A4C46F48046C9F84460E3
:1029F000D9F8446006F480460196019E23F0030650
:102A000006F1804606F59C3603F0030ED6F80880E2
:102A10004FEA8E0E0F2707FA0EF7A04228EA0707A3
:102A200046D004F58064A04244D004F58064A042FE
:102A300042D004F58064A04240D004F58064A042F6
:102A40003ED004F58064A0423CD004F58064A042EE
:102A50003AD004F58064A0420CBF0724082404FA8D
:102A60000EF43C43B46014686FEA0C06EF0354BFE5
:102A700034404CEA040414605468AF0354BF34403B
:102A80004CEA040454609468EF0254BF34404CEAAA
:102A900004049460D468AD0254BF34404CEA04048A
:102AA000D4600133102B7FF443AF03B0BDE8F08F47
:102AB0005446D4E70124D2E70224D0E70324CEE72A
:102AC0000424CCE70524CAE70624C8E7003C0140FB
:102AD00000000240003802400AB1816170470904D9
:102AE000FBE701684B6913F480634FF0000210D0DC
:102AF0006FF480634B612023026380F83D3080F8DF
:102B00003E20036C80F83C2043F004030364012062
:102B10007047184670472DE9F04104460F461646A7
:102B200098462568686927EA000080B2B8B16B69E9
:102B30005A0516D52B6843F400732B606FF480633D
:102B40006B6120220023236384F83D2084F83E300B
:102B5000226C42F00402226484F83C300120BDE87B
:102B6000F081731CDED0FFF7CDFCA0EB0800B04273
:102B700001D8002ED5D100232022236384F83D20E4
:102B800084F83E30226C42F02002E4E770B504463F
:102B90000D46164623685B695B0701D5002070BDB2
:102BA0002046FFF79EFFA8B96A1CF3D0FFF7AAFCE6
:102BB000801BA84201D8002DECD1002320222363E2
:102BC00084F83D2084F83E30226C84F83C3042F09A
:102BD000200222640120E2E770B504460D46164645
:102BE00021684B6913F0400301D0002010E04A69CE
:102BF000D2060ED56FF010024A612022236384F8BA
:102C00003D2084F83E30226C226484F83C30012060
:102C100070BDFFF777FC801BA84201D8002DDFD1E3
:102C200000232022236384F83D2084F83E30226C68
:102C300042F02002E8E72DE9F84606460F469146A5
:102C40001D464FEA114A3368BAF1010F0CBF5C69A7
:102C50009C6927EA0404A4B2B4FA84F46409A14587
:102C600001D0002017E06A1CEED0FFF74BFC089B58
:102C7000C01AA84201D8002DE5D1002320223363D9
:102C800086F83D2086F83E30326C86F83C3042F0C3
:102C9000200232640120BDE8F88670B504460D4676
:102CA000164623685B691B0601D5002070BD2046CF
:102CB000FFF717FFA8B96A1CF3D0FFF723FC801BAE
:102CC000A84201D8002DECD100232022236384F8F0
:102CD0003D2084F83E30226C84F83C3042F02002E3
:102CE00022640120E2E700002DE9F0431546026866
:102CF00085B0DDE90C789946136843F4807313605E
:102D00000E463B46CDF8008000224FF001110446EC
:102D1000FFF791FF236838B11B68DB0502D54FF43C
:102D20000073236403200AE006F0FE061E611949C1
:102D300043463A462046FFF7EEFE18B1012005B0A3
:102D4000BDE8F083236803905A6903929B6903935B
:102D5000424639462046039BFFF79FFF40B1236C54
:102D6000042B01BF2268136843F400731360E5E786
:102D7000B9F1010F236802D1EDB21D61DFE72A0A24
:102D80001A61394642462046FFF787FF0028E6D100
:102D90002368F1E7020001002DE9FF479A46036826
:102DA00015461A6842F480621A601A68DDE90C78E8
:102DB00042F480721A600E463B46CDF80080002235
:102DC0004FF001110446FFF736FF236848B11B6836
:102DD000DB0502D54FF400732364032004B0BDE883
:102DE000F0875FFA86F906F0FE061E612A4943461F
:102DF0003A462046FFF78FFE08B10120EEE7236830
:102E000003905A6903929B690393424639462046D0
:102E1000039BFFF742FF40B1236C042B01BF2268E4
:102E2000136843F400731360E7E7BAF1010F2368F6
:102E30001AD1EDB21D61424639462046FFF72DFFFB
:102E40000028E9D12268136843F4807313604FF0BF
:102E500001110246CDF800803B462046FFF7EBFE0D
:102E6000226860B11368B3E72A0A1A6139464246FC
:102E70002046FFF712FF0028CED12368D9E749F09A
:102E800001031361044943463A462046FFF743FED7
:102E9000003818BF0120A1E70200010070B5044608
:102EA00008B9012070BD90F83D3003F0FF021BB956
:102EB00080F83C20FFF7EAF8242384F83D302368AB
:102EC0001A6822F001021A601A6842F400421A607D
:102ED0001A6822F400421A6000F0B2FC3F4A6368AC
:102EE000934294BF3E4A3F4A90428CBF0022012247
:102EF000002AD6D121683C4E4A68B0FBF6F622F093
:102F00003F0232434A60354A0D6A934284BF4FF410
:102F10009672724325F03F0591BF721C4FF47A768A
:102F2000B2FBF6F201322A430A62CD69421E2B48F7
:102F300025F44F45834225F0FF0532D85B00B2FBF4
:102F4000F3F340F6FC720133134242D0C3F30B0398
:102F50002B43CB61D4E907300A68034322F0C00257
:102F600013430B608A68D4E9030322F4034203434A
:102F700022F0FF0213438B60D4E90530CA68034393
:102F800022F0FF021343CB600B6843F001030B6098
:102F900000202023206484F83D30206384F83E0024
:102FA00080E7A06850B903EB4303B2FBF3F30133AE
:102FB000C3F30B037BB143F40043C9E71920434338
:102FC000B2FBF3F30133C3F30B0323B143F44043E8
:102FD000BEE70423BCE70123BAE700BFA0860100D7
:102FE0007F841E00FF083D0040420F002DE9F7439B
:102FF000044699460C9E0F469046FFF783FA94F8D4
:103000003D30202B054603D0022003B0BDE8F083FD
:1030100000903C49192301222046FFF70CFE0028AE
:10302000F2D194F83C30012BEED02068012384F8D3
:103030003C300368D9075EBF036843F001030360B7
:10304000036823F400630360212384F83D304023A8
:1030500084F83E30002323640A9B6362BDF82C3061
:103060006385638D2385284BE362CDE900654B467C
:10307000424639462046FFF737FE00282AD0012075
:10308000C3E7FFF70AFE40B1236C042B01BF22689F
:10309000136843F400731360F1E7636A27681A4604
:1030A00012F8011B39616262628D218D013A92B280
:1030B00062857A69481E80B2520720850AD548B1D8
:1030C0005A783A6102336362638D013B02399BB2E5
:1030D00021856385238D2A4631462046002BD0D199
:1030E000FFF754FD0028CFD12268136843F4007322
:1030F0001360202384F83D3084F83C0084F83E00BF
:1031000083E700BF020010000000FFFF2DE9F0433D
:10311000044687B09946109F0D469046FFF7F2F996
:1031200094F83D30202B064604D00225284607B0EF
:10313000BDE8F08300907649192301222046FFF76D
:103140007AFD0028F1D194F83C30012BEDD02068B5
:10315000012384F83C300368DB075EBF036843F05B
:1031600001030360036823F400630360222384F8EF
:103170003D30402384F83E30002323640E9B63627D
:10318000BDF83C306385638D2385624BE36229463D
:10319000CDE900764B4642462046FFF7FDFD054649
:1031A00008B10125C2E7228D2368B2B902905A699D
:1031B00002929A690292029A1A6842F400721A60A4
:1031C000DFF85481238D002B2CD1202284F83D2060
:1031D00084F83C3084F83E30A8E7012A0AD11A6806
:1031E00022F480621A6003905A6903929A690392EA
:1031F000039AE1E7022A0ED11A6822F480621A606B
:103200001A6842F400621A6004905A6904929B6939
:103210000493049BD4E705905A6905929B69059332
:10322000059BCDE7032B56D8012B15D132463946E5
:103230002046FFF7D1FC0028B3D123681A69636ADE
:103240001A70636A01336362238D013B2385638DAA
:10325000013B9BB26385B5E7022B00963B464FF0DE
:1032600000024146204619D1FFF7E5FC002898D11D
:1032700023681A6842F400721A601A69636A1A7045
:10328000626A531C6362238D013B2385638D013B7E
:103290009BB2638523681B695370D2E7FFF7CBFCB1
:1032A00000287FF47EAF23681A6822F480621A60D7
:1032B0001A69636A1A70636A009601336362238D28
:1032C000013B2385638D013B9BB2638502463B46F0
:1032D00041462046C8E7324639462046FFF77CFC87
:1032E00000287FF45EAF23681A69636A1A70626A05
:1032F000531C6362238D013B2385638D013B9BB28D
:1033000063852368596949077FF55CAFC3E700BF50
:10331000020010000000FFFF04000100044B012226
:103320001A60044B82B01B680193019B02B0704786
:1033300020000E4200700040044B00221A60044B33
:1033400082B01B680193019B02B0704720000E42BF
:10335000007000402DE9F341044640B30368DD07E7
:1033600010D4236898075ED423681A0700F1A08060
:1033700023685B0700F1BE80A069002840F01F8130
:1033800000202BE0A64B9A6802F00C02042A07D01A
:103390009A6802F00C02082A0BD15A68510208D52B
:1033A0009F4B1B689A03DCD56368002BD9D10120A1
:1033B00014E06268B2F5803F13D11A6842F480329B
:1033C0001A60FFF79FF8964E054633689B03C8D4F2
:1033D000FFF798F8401B6428F7D9032002B0BDE836
:1033E000F0818F4DB2F5A02F2B6807D143F48023D5
:1033F0002B602B6843F480332B60E2E723F48033A7
:103400002B602B6823F480232B60002AD9D1FFF78F
:1034100079F806462B689F03A3D5FFF773F8801B46
:103420006428F7D9D9E77E4B9A6812F00C0F07D0C1
:103430009A6802F00C02082A11D15B685E020ED471
:10344000774B1A68950702D5E268012AAFD11A684E
:10345000216922F0F80242EAC1021A6084E7E268B8
:10346000704BB2B101221A60FFF74CF86C4D064662
:103470002B68980707D52B68226923F0F80343EAE5
:10348000C2032B6070E7FFF73DF8801B0228EFD9DD
:10349000A3E71A60FFF736F8614E054633689907CF
:1034A0007FF562AFFFF72EF8401B0228F6D994E7AC
:1034B00062695D4B7AB101221A60FFF723F8584E1A
:1034C0000546736F9F073FF553AFFFF71BF8401B8F
:1034D0000228F6D981E71A60FFF714F8504E054626
:1034E000736F98077FF544AFFFF70CF8401B022875
:1034F000F6D972E74A4B1A6C12F0805228D1019229
:103500001A6C42F080521A641B6C03F080530193D2
:10351000019B0127454D2B68D9051BD5A368404D5C
:10352000012B27D12B6F43F001032B67FEF7EAFF36
:103530003B4E054641F28838336F9B0739D5002F43
:103540003FF41AAF364A136C23F08053136413E729
:103550000027DFE72B6843F480732B60FEF7D2FF70
:1035600006462B68DA05D9D4FEF7CCFF801B02286B
:10357000F7D932E7052B04D12B6F43F004032B67F7
:10358000D0E72A6F22F001022A672A6F22F0040294
:103590002A67002BCAD1FEF7B5FF41F288380646EC
:1035A0002B6F9807CBD5FEF7ADFF801B4045F7D9B1
:1035B00013E7FEF7A7FF401B4045BDD90DE7184DA7
:1035C000AB6803F00C03082B47D0194E00230228E8
:1035D000336035D1FEF796FF07462B68990129D451
:1035E000D4E907321343626A43EA8213E26A43EA88
:1035F0000263A26A5208013A43EA02436B60012364
:103600003360FEF77FFF064D04462B689A013FF5B5
:10361000B7AEFEF777FF001B0228F6D9DDE600BF44
:103620000038024000004742800E474200700040D0
:1036300060004742FEF766FFC01B0228CDD9CCE6EA
:10364000FEF760FF04462B689B017FF599AEFEF7FD
:1036500059FF001B0228F6D9BFE601283FF4BEAE91
:103660006B68E26903F4800191427FF4A0AE216AA5
:1036700003F03F028A427FF49AAE616A47F6C07255
:103680001A40B2EB811F7FF492AEA26A520803F493
:103690004031013AB1EB024F7FF489AEE26A03F0A8
:1036A0007063B3EB026F3FF46BAE80E6134908B56D
:1036B0008B6803F00C03042B1CD0082B1CD14A6828
:1036C0004B68496813F4800314BF0D480D48C1F3DB
:1036D000881118BF002302F03F02A1FB0001FDF793
:1036E0000BFA064B5B68C3F3014301335B00B0FB8D
:1036F000F3F008BD0248FCE70248FAE70038024050
:1037000040787D010024F4002DE9F0410D46044687
:1037100010B90120BDE8F081444B1A6802F007029D
:103720008A4228D3226897072DD4D00741D43F4B33
:103730001A6802F00702AA4266D8226851076CD4C0
:10374000130707D53A4A2169936823F4604343EA93
:10375000C1039360FFF7AAFF354B364A9B68C3F35A
:103760000313D35CD840344B1860344B1868FEF711
:103770007FFE0020CEE7CAB21A701B6803F0070371
:103780008B42C6D1CEE72A4B12F0040F1EBF9968B8
:1037900041F4E0519960160742BF996841F46041D5
:1037A00099602349A0688B6823F0F00303438B6082
:1037B000BBE762681E4B012A1CD11B6813F4003F53
:1037C000A7D01B4EB36823F003031343B360FEF787
:1037D00099FE41F288380746B368626803F00C032B
:1037E000B3EB820FA3D0FEF78DFEC01B4045F3D98B
:1037F00003208FE7911E01291B6802D813F0007F78
:10380000DEE713F0020FDBE7EAB21A701B6803F081
:103810000703AB427FF47DAF8FE70549E0688B6813
:1038200023F4E05303438B608AE700BF003C02406F
:1038300000380240A07D0008140000201C00002079
:10384000044B054A9B68C3F38223D35C034A106888
:10385000D840704700380240B07D000814000020B6
:10386000044B054A9B68C3F34233D35C034A106898
:10387000D840704700380240B07D00081400002096
:10388000036A23F001030362036A70B54468826926
:103890000D6822F073022A438D6823F002032B4344
:1038A0000E4DA84202D00E4EB04210D1CE6823F089
:1038B00008033343A84223F0040302D0084DA84272
:1038C00005D1D1E9055624F4407435432C434460B6
:1038D00082614A684263036270BD00BF000001401C
:1038E00000040140036A23F480730362036A70B525
:1038F0004468C2690D6822F073022A438D6823F47C
:10390000007343EA0523114DA84203D005F58065F5
:10391000A84214D1CD6823F4006343EA05230B4D7C
:10392000A84223F4806303D005F58065A84206D140
:10393000D1E9055624F44054354344EA0514446063
:10394000C2614A68C263036270BD00BF00000140EB
:10395000036A23F480530362036A30B54468C26982
:103960000D6822F4E64242EA05228D6823F40053F2
:1039700043EA0533084DA84203D005F58065A84207
:1039800004D14D6924F4804444EA85144460C26142
:103990004A680264036230BD0000014070470000C5
:1039A000304A0368904212D0B0F1804F0FD0A2F598
:1039B0007C4290420BD002F58062904207D002F523
:1039C0008062904203D002F57842904219D14A6851
:1039D00023F070031343234A904229D0B0F1804F63
:1039E00026D0A2F57C42904222D002F5806290421D
:1039F0001ED002F5806290421AD002F578429042C1
:103A000016D0194A904213D002F5806290420FD02E
:103A100002F5806290420BD0A2F59832904207D016
:103A200002F58062904203D002F58062904203D199
:103A3000CA6823F4407313434A6923F08003134395
:103A400003608B68C3620B688362064B984203D0A5
:103A500003F58063984201D10B690363012343613D
:103A6000704700BF000001400040014010B504460F
:103A700030B390F83D3003F0FF021BB980F83C20D2
:103A8000FEF73CFB0223206884F83D30211DFFF740
:103A900087FF012384F84630002084F83E3084F804
:103AA0003F3084F8403084F8413084F8423084F864
:103AB000433084F8443084F8453084F83D3010BDFC
:103AC0000120FCE710B5044630B390F83D3003F018
:103AD000FF021BB980F83C20FFF760FF022320683B
:103AE00084F83D30211DFFF75BFF012384F8463049
:103AF000002084F83E3084F83F3084F8403084F869
:103B0000413084F8423084F8433084F8443084F8FB
:103B1000453084F83D3010BD0120FCE7F8B50D4676
:103B2000044600284DD090F83D3003F0FF021BB949
:103B300080F83C20FEF72AFB2146022384F83D3022
:103B400051F8040B836823F4804323F00703836058
:103B5000FFF726FF20682B6886688269A968076AD4
:103B60001E43AB6922F4407222F0030241EA0323B0
:103B7000134323F47C422B69E9691B0143EA0123C7
:103B8000E9680B43296A22F0FC0243EA013313433C
:103B9000696927F0AA026F68866047EA01178361A6
:103BA00017430123076284F84630002084F83E3032
:103BB00084F83F3084F8423084F8433084F83D3054
:103BC000F8BD0120FCE70000036A23F01003036244
:103BD000036A70B5446882690D6822F4E64242EADD
:103BE00005228D6823F0200343EA0513104DA842F7
:103BF00003D005F58065A84214D1CD6823F0800379
:103C000043EA05130A4DA84223F0400303D005F50B
:103C10008065A84206D1D1E9055624F440643543B5
:103C200044EA8504446082614A688263036270BD2D
:103C30000000014070B590F83C30012B0546144659
:103C400054D00122082C80F83C203ED007D8CCB1BB
:103C5000042C29D0002385F83C30104670BD0C2C74
:103C6000F8D10068FFF774FE2B680969DA6942F43D
:103C70000062DA61DA6922F48062DA61DA6942EAC2
:103C8000012231E00068FFF7FBFD2B6809699A69A2
:103C900042F008029A619A6922F004029A619A69D4
:103CA0000A439A610022D5E70068FFF78DFF2B6871
:103CB00009699A6942F400629A619A6922F4806201
:103CC0009A619A6942EA0122EBE70068FFF70AFE6F
:103CD0002B680969DA6942F00802DA61DA6922F0D0
:103CE0000402DA61DA690A43DA61DBE70222B4E747
:103CF00010B58468114324F47F4441EA032323432D
:103D0000836010BD70B590F83C30012B04464FF035
:103D1000020300F09180012280F83D3080F83C20C1
:103D20000068836823F47F4323F0770383600B6884
:103D3000602B52D033D8402B67D016D8202B0DD013
:103D40000AD833F0100109D0012384F83D30002354
:103D500084F83C30104670BD302BF5D1826822F0DB
:103D60007002134343F0070317E0502BECD14A686D
:103D7000CE68016A056A25F001050562836921F0B4
:103D80000A0123F0F00343EA06130A438361026247
:103D9000836823F0700343F05703836011E0B3F5A9
:103DA000805F0ED0B3F5005F0DD0702BCCD1CB6807
:103DB000D1E90121FFF79CFF2268936843F0770364
:103DC00093600022C0E7CB68D1E90121FFF790FFA3
:103DD0002268936843F48043F2E74D68CE68016A35
:103DE00021F0100101628269036A22F4704223F01B
:103DF000A00343EA051342EA063282610362836844
:103E000023F0700343F06703C7E74A68CE68016A8E
:103E1000056A25F001050562836921F00A0123F096
:103E2000F00343EA06130A4383610262836823F0C6
:103E3000700343F04703B0E71A468BE7036A01F0CB
:103E40001F0110B501248C4023EA04030362036AB6
:103E50008A401A43026210BD10B5044629B990F891
:103E60003E30012B1DD0012032E0042907D190F80B
:103E70003F30012BF7D1022380F83F3014E00829AE
:103E800007D190F84030012BEDD1022380F840306B
:103E90000AE090F84130012BE5D1022380F841304F
:103EA00002E0022380F83E3001222068FFF7C6FFBF
:103EB0002368194A93420CD018498B4209D0B3F1B8
:103EC000804F0DD19A6802F00702062A1FD1002008
:103ED00010BD596C934241F400415964F2D0EEE7B1
:103EE0000F4A9342EED002F580629342EAD002F587
:103EF00080629342E6D002F578429342E2D002F526
:103F000070529342DED0A2F594329342DAD01A680E
:103F100042F001021A60DAE70000014000040140AB
:103F200000040040FFF798BF30B590F83C30012BFB
:103F30004FF0020332D080F83D3003680D685C68B2
:103F40009A6824F070042C435C60154CA3421AD08C
:103F5000B3F1804F17D0A4F57C44A34213D004F5ED
:103F60008064A3420FD004F58064A3420BD004F513
:103F70007844A34207D004F57054A34203D0A4F5BB
:103F80009434A34204D1496822F080020A439A6023
:103F9000012380F83D30002380F83C30184630BDC6
:103FA0000000014090F83C30012B1FD0CB688A689C
:103FB00023F4407313434A6823F4806313430A686D
:103FC00023F4006313430A6923F4805313434A69BB
:103FD00023F400531343CA6923F480431343026854
:103FE0005364002380F83C30184670470220704725
:103FF000026802F10C0353E8003F23F490730C3283
:1040000042E8003102680029F2D102F1140353E8BA
:10401000003F23F0010302F1140C4CE800310029A9
:10402000F3D1036B012B0BD102F10C0353E8003FDA
:1040300023F0100302F10C0C4CE800310029F3D1FD
:10404000202380F83E300023036370470268C16874
:1040500038B5136923F440530B4313610546836855
:104060000069D168034368690343E86921F4164194
:1040700021F00C0103430B43D3605369A96923F476
:1040800040730B4353611F4B9A4203D003F5806387
:104090009A4224D1FFF7E4FBEA691923B2F5004FF5
:1040A000A0FB0301D5E900431CD11A4692184FF03A
:1040B00000035B41FCF720FD6421B0FBF1F501FB3F
:1040C0001503DB003233B3FBF1F303F007025B00AF
:1040D00002EB051203F4F8731344A36038BDFFF735
:1040E000AFFBD9E79A009B0FFCF706FD6422B0FBFB
:1040F000F2F102FB11031B013233B3FBF2F303EBCA
:104100000113EAE700100140F8B504460E461746D1
:104110001D462268136836EA030301D1002028E017
:104120006B1CF7D025B1FEF7EDF9C01B8542F0D22C
:10413000226802F10C0353E8003F23F4D0730C32E1
:1041400042E8003021680028F2D101F1140353E85D
:10415000003F23F0010301F1140040E80032002A7F
:10416000F3D1202384F83D3084F83C2084F83E309D
:104170000320F8BD10B5044640B390F83D3003F07D
:10418000FF021BB980F83C20FEF7A0F82268242328
:1041900084F83D30D36823F40053D3602046FFF702
:1041A00055FF23681A6922F490421A615A6922F075
:1041B0002A025A61DA6842F40052DA6000202023B1
:1041C000206484F83D3084F83E3010BD0120FCE7C7
:1041D000F7B5174690F83D200093202A04460E4676
:1041E00049D1002945D0002F43D090F83C20012A26
:1041F00041D0012280F83C2000252122056480F86E
:104200003D20FEF77FF9A168009BA784B1F5805F90
:104210000246E78403D1216909B935460E460021DB
:1042200084F83C10E18C89B241B940212046FFF767
:104230006BFF60B9202384F83D3009E080212046DF
:10424000CDE90023FFF760FFDDE9002310B1032073
:1042500003B0F0BD20684EB935F8021BC1F3080168
:104260004160E18C013989B2E184DBE716F8011B7A
:10427000F6E70120ECE70220EAE77047704708B54F
:10428000806B0023C385C384FFF7F8FF08BD704728
:1042900013B590F83E30222B53D18168836A0268AF
:1042A000B1F5805F3DD1016900293DD15268C2F36B
:1042B000080223F8022BC48D8362013CA4B2C4859A
:1042C000002C2CD10368DA6822F02002DA60DA6868
:1042D00022F48072DA605A6922F001025A612023C6
:1042E00080F83E30036B012B036827D1046303F190
:1042F0000C0252E8002F22F0100203F10C0444E8F3
:1043000000210029F3D11A68D20605D501911A6857
:1043100001925B680193019B818DFFF7B8FF00203C
:1043200010E039B9016929B95268D2B21A70836AAA
:104330000133C0E7526802F07F02F7E7FDF7EEFDB8
:10434000EDE7022002B010BD036837B51A68D968DE
:104350005D6912F00F0F044608D1950668D58D06E9
:1043600066D503B0BDE83040FFF792BF05F001000D
:1043700001F4907505435BD0D50705D5CB0542BF49
:10438000236C43F001032364550704D518B1236C53
:1043900043F002032364930704D518B1236C43F060
:1043A00004032364150707D501F0200303431EBF50
:1043B000236C43F008032364236C002B32D0900657
:1043C00004D58A0602D52046FFF762FF23685B69A1
:1043D000256C03F0400305F008051D43204623D05B
:1043E000FFF706FE226853695B0618D502F1140335
:1043F00053E8003F23F0400302F1140040E800318D
:104400000029F3D1A06B50B1724B0365FEF778FA27
:1044100040B1A06B036D03B0BDE8304018472046A3
:10442000FFF72CFF03B030BDFFF728FF2564F9E745
:10443000206B012840F09180D50640F18E80C8069F
:1044400040F18B80002201921A6801925A68019211
:10445000019A5A6955064CD5A16B0A68526892B206
:10446000002ADFD0A08D9042DCD9E285CA69B2F57E
:10447000807F36D003F10C0252E8002F22F48072C4
:1044800003F10C0040E800210029F3D103F11402EC
:1044900052E8002F22F0010203F1140040E800214D
:1044A0000029F3D103F1140252E8002F22F0400258
:1044B00003F1140040E800210029F3D1202284F800
:1044C0003E20216303F10C0252E8002F22F010027B
:1044D00003F10C0040E800210029F3D1A06BFEF7A6
:1044E000CBF9E38DA18DC91A89B22046FFF7CFFE23
:1044F00098E7E18D8AB2E18D89B2002992D0A18D31
:10450000891A89B200298DD003F10C0252E8002FDC
:1045100022F4907203F10C0545E800200028F3D145
:1045200003F1140252E8002F22F0010203F11405F6
:1045300045E800200028F3D1202284F83E202063A3
:1045400003F10C0252E8002F22F0100203F10C05D7
:1045500045E800200028F3D1C7E7100628D50D064E
:1045600026D594F83D20212A7FF45CAFA168226A09
:10457000B1F5805F17D12169A9B932F8021BC1F3E7
:10458000080159602262E28C013A92B2E284002A68
:104590007FF448AFDA6822F08002DA60DA6842F02D
:1045A0004002DA603EE7511C216212785A60EAE765
:1045B00050067FF537AF4A067FF534AFDA6822F050
:1045C0004002DA60202384F83D302046FFF755FE94
:1045D00028E700BF7F420008C2858285222300228F
:1045E000026480F83E30036880F83C208162D9681C
:1045F00041F48071D960596941F001015961D9686C
:1046000041F02001D9601046704770B490F83E60C8
:10461000202E10D161B15AB190F83C40012C0AD043
:10462000012480F83C400024046370BCFFF7D4BF31
:10463000012070BC70470220FBE70000EFF3058308
:104640002BB9064B186828B901221A6070476FF021
:10465000050070474FF0FF30704700BF4003002057
:1046600010B5EFF305845CB9084B1A68012A0AD12A
:10467000074AD47702221A6000F090FD204610BD50
:104680006FF00500FBE74FF0FF30F8E74003002034
:1046900000ED00E0F0B587B0144600220B4605920D
:1046A000EFF30582D2B9C8B1002C2FD0A569002D37
:1046B00008BF1825691E3729AC462BD86168C90781
:1046C00028D466696EB1B208D4E9027E216857B178
:1046D000BEF15B0F02D9246904B1EEB9059807B0A9
:1046E000F0BD8022F0E7BEF1000FF7D12469002C65
:1046F000F4D10C4605A9CDE900C192B2214600F0E3
:104700001FFD01281CBF00230593E7E74FF0180C9D
:104710008022EFE71046E2E7CDE90147009500F07F
:10472000D7FC0590DAE710B5EFF3058424B910B192
:1047300000F090FE204610BD6FF00500FBE7000082
:10474000034B0360034B0B6080231360704700BF73
:10475000E4020020E4000020034B0360034B0B60E5
:104760004FF4807313607047440700204403002017
:1047700000F108034FF0FF32C0E9022343600361F8
:1047800000230360704700230361704743684B6058
:104790009A688A609A685160996003680861013379
:1047A0000360704730B50C68631C0AD103695A680E
:1047B0004A6091608B60596003680861013303604F
:1047C00030BD00F10802134652681568A542FAD9B7
:1047D000EDE7D0E9011203698A60516059688142AE
:1047E00008BF5A60002202611A68013A1A6018680C
:1047F000704710B5044601F0FDF9A46B01F01CFAF6
:10480000B4FA84F0400910BDF8B51546026C866B09
:10481000044652B9076847BB806800F055FFA7609F
:1048200005460136A6632846F8BD65B9406801F023
:1048300035FD6368226C1344A26863609342F0D331
:1048400023686360EDE7C06801F028FD226CE3682F
:1048500051429B1A2268E36093423EBFA3685B18F3
:10486000E360022D01D116B1013E0025D9E735469E
:10487000D7E7034610B41A6C08466AB1DC68996839
:1048800014448C4228BF1968DC6028BFD960D968FD
:104890005DF8044B01F002BD5DF8044B704770B544
:1048A000044601F0A7F994F8455004F124066DB2CE
:1048B000002D14DCFF2384F8453001F0BDF901F030
:1048C00099F994F8445004F110066DB2002D12DCF1
:1048D000FF2384F84430BDE8704001F0ADB9636A4D
:1048E000002BE7D0304600F04DFE08B100F0D6FEB8
:1048F000013D6DB2DCE72369002BE9D0304600F0C2
:1049000041FE08B100F0CAFE013D6DB2DEE70000D5
:1049100038B50D46044640B94FF0500383F3118873
:10492000BFF36F8FBFF34F8FFEE701F063F9D4E958
:104930000F31226862604B43D0185B1A1344A060A9
:10494000E3600020FF23A06384F8443084F84530FE
:1049500095B9236963B104F1100000F013FE38B17A
:104960000A4B4FF080521A60BFF34F8FBFF36F8F27
:1049700001F062F9012038BD04F11000FFF7F8FEE4
:1049800004F12400FFF7F4FEF2E700BF04ED00E0BD
:1049900013B51C4640B94FF0500383F31188BFF3A1
:1049A0006F8FBFF34F8FFEE743B94FF0500383F390
:1049B0001188BFF36F8FBFF34F8FFEE74AB191B9F4
:1049C0004FF0500383F31188BFF36F8FBFF34F8F06
:1049D000FEE741B14FF0500383F31188BFF36F8FAF
:1049E000BFF34F8FFEE750230193019B502B08D05C
:1049F0004FF0500383F31188BFF36F8FBFF34F8FD6
:104A0000FEE7002908BF2246019B22600123C4E97A
:104A10000F0184F8463019462046FFF779FF9DF8CC
:104A2000103084F84C30204602B010BD2DE9FF470D
:104A3000884601921F46044640B94FF0500383F365
:104A40001188BFF36F8FBFF34F8FFEE751B9036C2F
:104A500043B14FF0500383F31188BFF36F8FBFF35F
:104A60004F8FFEE7022F0BD1E36B012B08D04FF0E5
:104A7000500383F31188BFF36F8FBFF34F8FFEE7AF
:104A800000F012FE064650B9019B4BB14FF05003A7
:104A900083F31188BFF36F8FBFF34F8FFEE70026BC
:104AA000DFF8E8A04FF0000937E0019D1DB901F0E3
:104AB000C3F8002050E016B902A800F0A7FD01F0ED
:104AC000BBF800F0AFFB01F095F894F84430FF2BF1
:104AD00008BF84F8449094F84530FF2B08BF84F851
:104AE000459001F0A9F801A902A800F09BFD00285B
:104AF00046D101F07FF8A26BE36B9A422FD101F00F
:104B00009BF8019904F1100000F004FD2046FFF726
:104B1000C6FE00F02BFC50B3012601F06BF8A26B2F
:104B2000E36B9A4201D3022FBFD13A464146204659
:104B3000FFF76AFE636A1BB104F1240000F022FD56
:104B400038B1124B4FF080521A60BFF34F8FBFF352
:104B50006F8F01F071F8012004B0BDE8F08701F01B
:104B60006BF82046FFF79BFE00F000FCD4E74FF007
:104B70008053CAF80030BFF34F8FBFF36F8FCBE77E
:104B80002046FFF78CFE00F0F1FB92E704ED00E019
:104B90002DE9F843894690461F46044640B94FF038
:104BA000500383F31188BFF36F8FBFF34F8FFEE77E
:104BB00051B9036C43B14FF0500383F31188BFF335
:104BC0006F8FBFF34F8FFEE7022F0BD1E36B012BEB
:104BD00008D04FF0500383F31188BFF36F8FBFF3FA
:104BE0004F8FFEE701F022F9EFF311864FF05003EB
:104BF00083F31188BFF36F8FBFF34F8FA26BE36B0B
:104C00009A4201D3022F23D194F84550A36B6DB281
:104C10003A4649462046FFF7F7FD6B1C13D1636AFD
:104C20000BB901200BE004F1240000F0ABFC0028DC
:104C3000F7D0B8F1000FF4D00120C8F8000086F3D7
:104C40001188BDE8F88301356DB284F84550E8E776
:104C50000020F4E72DE9F04385B00F4601920446A9
:104C600040B94FF0500383F31188BFF36F8FBFF348
:104C70004F8FFEE751B9036C43B14FF0500383F3FC
:104C80001188BFF36F8FBFF34F8FFEE700F00CFD6D
:104C9000064650B9019B4BB14FF0500383F3118886
:104CA000BFF36F8FBFF34F8FFEE70026DFF8E09072
:104CB0004FF000083BE0019D1DB900F0BDFF002052
:104CC00052E016B902A800F0A1FC00F0B5FF00F018
:104CD000A9FA00F08FFF94F84430FF2B08BF84F846
:104CE000448094F84530FF2B08BF84F8458000F0DD
:104CF000A3FF01A902A800F095FC00283DD12046A1
:104D0000FFF777FD98B3019904F1240000F002FC4D
:104D10002046FFF7C4FD00F029FB38B94FF080535F
:104D2000C9F80030BFF34F8FBFF36F8F012600F03B
:104D300061FFA56B002DBED039462046013DFFF72F
:104D400098FDA563236963B104F1100000F01AFC1B
:104D500038B10F4B4FF080521A60BFF34F8FBFF343
:104D60006F8F00F069FF012005B0BDE8F083204699
:104D7000FFF795FD00F0FAFAD8E72046FFF78FFD20
:104D800000F0F4FA2046FFF734FD0028CED096E775
:104D900004ED00E030B5074A002352F8335002EB2F
:104DA000C3041DB942F83310606030BD0133082BD5
:104DB000F3D1FAE778C9002070B504460D461646CF
:104DC00000F018FF94F84430FF2B04BF002384F850
:104DD000443094F84530FF2B04BF002384F845305D
:104DE00000F02AFFA36B2BB93246294604F12400B8
:104DF00000F0AAFB2046BDE87040FFF750BD000060
:104E00002DE9F041044600F0F5FE2F4B2F4D1A68B6
:104E10002F4F01321A602E68002E49D12C601B687A
:104E2000012B1FD1B84640460136FFF7A1FC382EB2
:104E300008F11408F7D1DFF8C480264E4046FFF78A
:104E400097FC3046FFF794FC2348FFF791FC23487A
:104E5000FFF78EFC2248FFF78BFC224BC3F8008043
:104E6000214B1E60214A136801331360204A63649A
:104E70001168E36A14208B4200FB037004F1040103
:104E800088BF1360FFF782FC00F0D6FE194B1B6849
:104E900063B12B68DA6AE36A9A4207D2164B4FF085
:104EA00080521A60BFF34F8FBFF36F8FBDE8F08160
:104EB000104B1B68002BD5D12B68DA6AE36A9A4243
:104EC00098BF2C60CEE700BF0C0C0020A00700208C
:104ED000AC070020340C0020540C0020800C002073
:104EE0006C0C0020A4070020A8070020180C00204C
:104EF0001C0C0020680C002004ED00E0200C0020B9
:104F0000064A13681968064B19B94FF0FF321A6048
:104F100070471268D268D2685268F8E7A407002088
:104F2000480C00202DE9F047DDE909844FEA8209A9
:104F30004A4606460D46206BA5211F4601F0BCF9E6
:104F4000226BA9F10409914429F00709ADB36B1E46
:104F500004F134020F3513F8011F02F8011B197810
:104F600009B1AB42F7D1002384F84330089D372DB7
:104F700028BF37254FF0000AE562E564201DC4F81C
:104F800050A0FFF700FCC5F1380504F11800FFF749
:104F9000FAFBC4F854A02461A561646284F858A0A7
:104FA0003A463146484600F0FBFD2060B8F1000F5C
:104FB00001D0C8F80040BDE8F08784F83450D5E748
:104FC00010B590F8593004463BB9006B01F012F867
:104FD0002046BDE8104001F00DB8012BF9D0022B9E
:104FE00008D04FF0500383F31188BFF36F8FBFF3E6
:104FF0004F8FFEE710BD000080B5DFF85C80124FD8
:10500000124C134D236863B9124B1B68012BF8D95E
:105010004FF08053C8F80030BFF34F8FBFF36F8F4E
:10502000EEE700F0E7FDFB68DE68301DFFF7D1FB1F
:105030002B68013B2B602368013B236000F0FCFDE3
:105040003046FFF7BDFFDDE7800C0020100C00208C
:105050000C0C0020AC07002004ED00E0F8B5164B66
:10506000164E1D680446306804300F46FFF7B1FB4A
:10507000631C334607D137B131681148BDE8F840A9
:105080000431FFF783BB1A682C19546007D30D4A0B
:1050900010681968BDE8F8400431FFF783BB0A4A7D
:1050A000106819680431FFF77DFB084B1A68A242AB
:1050B00088BF1C60F8BD00BF940C0020A007002032
:1050C0006C0C0020A8070020A4070020480C00203A
:1050D00070B586B0DDE90B5445B94FF0500383F34A
:1050E0001188BFF36F8FBFF34F8FFEE744B94FF0C6
:1050F000500383F31188BFF36F8FBFF34F8FFEE729
:105100005C260596059E5C2E08D04FF0500383F375
:105110001188BFF36F8FBFF34F8FFEE72563022522
:1051200084F8595004AD01950A9D02940095059E9E
:10513000FFF7F8FE2046FFF763FE049806B070BD47
:105140002DE9F043074685B09000884616469946FB
:1051500000F0BEFE0546E8B15C2000F0B9FE044652
:10516000A8B1002380F859300D9B056301930C9B77
:105170000290009332464B4641463846FFF7D2FE36
:105180002046FFF73DFE012005B0BDE8F08328462C
:1051900000F030FF4FF0FF30F6E7000010B588B0A8
:1051A000002407AA06A905A8CDE90544FFF7C8FA17
:1051B000059B0293069B079A15491648CDE90043C3
:1051C0002346FFF785FFA8B100F014FB012813D197
:1051D0004FF0500383F31188BFF36F8FBFF34F8FEE
:1051E0000D4B4FF0FF321A600C4B18600C4B1C60DB
:1051F00000F098FD08B010BD0130FBD14FF0500316
:1052000083F31188BFF36F8FBFF34F8FFEE700BFAB
:10521000B87D0008F94F0008480C0020680C0020F9
:10522000940C0020024A136801331360704700BFDA
:10523000140C0020014B1868704700BF940C00202C
:105240003F4B1B682DE9F74F002B73D13D4B1D6879
:1052500001351D60BDB93C4B1A68126842B14FF070
:10526000500383F31188BFF36F8FBFF34F8FFEE7B7
:10527000364A1968106818601160354A136801339E
:105280001360FFF73DFE334E334F3368DFF8D480B1
:105290009D424FF0000411D2D8F80030DA6A14238E
:1052A0005343FB58022B2D4B1B6828BF0124002BB6
:1052B00018BF0124204603B0BDE8F08FDFF88890C6
:1052C000DFF8A4A0D9F800301B681BB94FF0FF33FA
:1052D0003360E1E7D9F80030DB68D3F80CB0DBF8D5
:1052E0000420954201D23260D6E70BF10401084652
:1052F0000191FFF76EFADBF82820019922B10BF13A
:105300001800FFF766FA0199DBF82C00DAF80020A4
:105310001423904288BFCAF8000003FB0070FFF717
:1053200035FAD8F80010DBF82C20CB6A9A4228BF57
:105330000124C7E70A4A1368013313600024B9E760
:10534000140C0020940C0020A4070020A8070020C3
:105350004C0C0020480C0020AC070020980C0020CA
:10536000500C0020A00700201C0C0020F7B5304C8A
:10537000236843B94FF0500383F31188BFF36F8F55
:10538000BFF34F8FFEE700F035FC2368013B23603D
:1053900024682CB1002400F04FFC204603B0F0BD7F
:1053A000244B1B68002BF5D0234D244E244F1EE0C8
:1053B000EB68DC6804F11800FFF70BFA211D0846C2
:1053C0000191FFF706FAE36A3268019914209342CB
:1053D00000FB037088BF3360FFF7D8F9194BE26A0E
:1053E0001B68DB6A9A4202D3174B01221A602B68B2
:1053F000002BDDD10CB1FFF783FD144D2C6844B1B7
:10540000114E0127FFF71CFF00B13760013CF9D1B5
:105410002C600D4B1B68002BBCD00D4B4FF0805205
:105420001A60BFF34F8FBFF36F8F0124B3E700BF44
:10543000140C00200C0C0020540C00201C0C00202C
:10544000AC070020A0070020980C0020500C002082
:1054500004ED00E008B540B90E4B4FF080521A60E1
:10546000BFF34F8FBFF36F8F08BD0B4B196841B16E
:105470004FF0500383F31188BFF36F8FBFF34F8F4B
:10548000FEE7FFF7CFFEFFF7E9FDFFF76FFF00280C
:10549000E2D0E9E704ED00E0140C0020184B1A6894
:1054A000184BF0B512B101221A60F0BD164D1A600A
:1054B000164A2B681427164607FB03F15018545858
:1054C0008CB144680831646844600A44944204BF63
:1054D00062684260142202FB03625268D1680C4A7F
:1054E00011602B60E1E743B94FF0500383F311885B
:1054F000BFF36F8FBFF34F8FFEE7013BDCE700BFC9
:10550000140C0020980C00201C0C0020AC0700207C
:10551000A007002010B50C4640B94FF0500383F3AC
:105520001188BFF36F8FBFF34F8FFEE7054B1968EC
:105530001831FFF737F920460121BDE81040FFF789
:105540008DBD00BFA007002038B50D46144640B9F8
:105550004FF0500383F31188BFF36F8FBFF34F8F6A
:10556000FEE7074B19681831FFF710F9002C2146A8
:105570000CBF28464FF0FF30BDE83840FFF76EBD46
:10558000A0070020C36813B5DC6844B94FF050038E
:1055900083F31188BFF36F8FBFF34F8FFEE704F1E2
:1055A000180108460191FFF714F9124B01991B6885
:1055B000EBB9211D08460191FFF70BF90E4AE36A8A
:1055C00010680199834288BF13600C4A142000FBC5
:1055D0000320FFF7DBF80A4BE26A1B68DB6A9A429A
:1055E00085BF084B01200020186002B010BD06489E
:1055F000EFE700BF140C00201C0C0020AC070020BB
:10560000A0070020980C0020540C0020034B1B68BE
:105610000360034B1B684360704700BF4C0C0020C5
:10562000940C002070B50C46054640B94FF050036D
:1056300083F31188BFF36F8FBFF34F8FFEE741B93C
:105640004FF0500383F31188BFF36F8FBFF34F8F79
:10565000FEE700F0CFFA0F4B196823685A1C10D0F0
:105660000D482E6800686A68864201D08A420FD9C8
:10567000881A83420AD95B1A134423602846FFF72D
:10568000C5FF002400F0D8FA204670BD0023236037
:105690000124F7E7940C00204C0C0020014B012260
:1056A0001A607047980C0020054B1B6833B1054BFE
:1056B0001B68002B0CBF02200020704701207047A0
:1056C000680C0020140C002013B510B9002002B0A3
:1056D00010BD1C4B1C68844208D04FF0500383F36C
:1056E0001188BFF36F8FBFF34F8FFEE7236D43B970
:1056F0004FF0500383F31188BFF36F8FBFF34F8FC9
:10570000FEE7E16AE26C013B91422365DED0002BAB
:10571000DCD1211D08460191FFF75BF8E36C01998C
:10572000E362C3F13802A261074A1068834288BF6E
:105730001360064A142000FB0320FFF727F801201E
:10574000C5E700BFA00700201C0C0020AC0700200C
:10575000F7B5114C00F04EFA2568BDB90F4F104E49
:105760003846FFF705F83046FFF702F80D4B0E4AB2
:105770001F600E4B10211E600A200D4B0095FFF795
:1057800007F9206010B10B49FFF704FB03B0BDE837
:10579000F04000F051BA00BFC00D0020440D0020C1
:1057A000580D00209C0C0020A40C0020A00C002010
:1057B000700D0020BD7D0008914208B54160006178
:1057C0000AD8D21A83699A420DD2084B011D186873
:1057D000FEF7E8FF002008BD9A4201D2994202D2AA
:1057E000034B011DF3E70120F5E700BFA00C0020EB
:1057F0009C0C002010B588B0FFF7AAFF124B1B6865
:10580000B3B1002407AA06A905A8CDE90544FEF70F
:10581000A3FF059B0293069B019302230093079A23
:105820000A490B482346FFF753FC0A4B186040B95E
:105830004FF0500383F31188BFF36F8FBFF34F8F87
:10584000FEE7012008B010BDC00D0020C27D000899
:105850002D590008C40D00207FB5164604461A468F
:1058600040B94FF0500383F31188BFF36F8FBFF33C
:105870004F8FFEE70D4D286880B10529CDE9001650
:1058800002940DDCFFF710FF0023022808BF089ADE
:10589000286818BF1A466946FFF7C8F804B070BDFB
:1058A00000236946FFF774F9F8E700BFC00D002038
:1058B000F0B51C4D85B000272B681A682AB91A4A22
:1058C00011682960136005B0F0BDDB68DC681E68F4
:1058D000211D08460391FEF77CFF236A2046984766
:1058E00094F82830039913F0040FE5D0A3693344EA
:1058F0009E4205D2286863602461FEF753FFDBE710
:1059000000230097324619462046FFF7A5FF0028DE
:10591000D2D14FF0500383F31188BFF36F8FBFF3E1
:105920004F8FFEE79C0C0020A00C00202DE9F04FCB
:10593000774FDFF8ECA187B0B9463B68D3F800B0E9
:10594000BBF1000F28D0DB68D3F800B00024714E03
:10595000FFF768FCFFF76EFC336898420546B046D7
:105960001CD330601CB36C4B1B681C68B4FA84F405
:1059700064096A4B22461868ABEB0501FFF71CFA75
:10598000FFF7F4FC78B94FF08053CAF80030BFF34A
:105990004F8FBFF36F8F06E00124D8E7FFF788FF32
:1059A0003560FFF7E3FC5D4E4FF0000B35E08345BB
:1059B000DFD8FFF7DBFCD9F80030DB68DE68301D8C
:1059C000FEF707FF96F82830580718D5B1695B46EF
:1059D0002A4659443046FFF7EFFEA0B10094234613
:1059E0005A4621463046FFF737FF60B94FF0500363
:1059F00083F31188BFF36F8FBFF34F8FFEE723F060
:105A0000010386F82830336A30469847CBE7039B7A
:105A100005999847029B002B0ADA3068002202A9F8
:105A2000FFF718F9002888D0029B0498002BEEDBC2
:105A3000049C6369A3B9FFF7FDFBD8F800309842D6
:105A4000054601D2FFF734FF029BC8F80050092B2E
:105A5000E3D8DFE803F0090909343B540909343B72
:105A6000201DFEF7B6FEE6E794F82830A16943F062
:105A7000010384F82830039B2A4619442046FFF787
:105A80009BFE0028C9D0236A2046984794F8283006
:105A90005907C2D5A2690399CDF800B000230A4482
:105AA00020461946FFF7D8FE0028B6D14FF0500324
:105AB00083F31188BFF36F8FBFF34F8FFEE794F826
:105AC000283023F0010384F82830A6E794F8283022
:105AD0000399A16143F0010384F8283041B94FF0E4
